{
  "_format": "hh-sol-artifact-1",
  "contractName": "Payment",
  "sourceName": "contracts/Payment.sol",
  "abi": [
    {
      "inputs": [],
      "name": "getBalance",
      "outputs": [
        {
          "internalType": "uint256",
          "name": "",
          "type": "uint256"
        }
      ],
      "stateMutability": "view",
      "type": "function"
    },
    {
      "inputs": [
        {
          "internalType": "address",
          "name": "receiver",
          "type": "address"
        }
      ],
      "name": "sendPayment",
      "outputs": [],
      "stateMutability": "payable",
      "type": "function"
    },
    {
      "inputs": [],
      "name": "sendToContract",
      "outputs": [],
      "stateMutability": "payable",
      "type": "function"
    },
    {
      "stateMutability": "payable",
      "type": "receive"
    }
  ],
  "bytecode": "0x608060405234801561001057600080fd5b506104a2806100206000396000f3fe6080604052600436106100385760003560e01c80630a4c137c1461004457806312065fe01461004e5780638a7644a8146100795761003f565b3661003f57005b600080fd5b61004c610095565b005b34801561005a57600080fd5b50610063610187565b604051610070919061038d565b60405180910390f35b610093600480360381019061008e9190610297565b61018f565b005b600034116100d8576040517f08c379a00000000000000000000000000000000000000000000000000000000081526004016100cf9061034d565b60405180910390fd5b60003073ffffffffffffffffffffffffffffffffffffffff16346040516100fe90610338565b60006040518083038185875af1925050503d806000811461013b576040519150601f19603f3d011682016040523d82523d6000602084013e610140565b606091505b5050905080610184576040517f08c379a000000000000000000000000000000000000000000000000000000000815260040161017b9061036d565b60405180910390fd5b50565b600047905090565b600034116101d2576040517f08c379a00000000000000000000000000000000000000000000000000000000081526004016101c99061034d565b60405180910390fd5b60008173ffffffffffffffffffffffffffffffffffffffff16346040516101f890610338565b60006040518083038185875af1925050503d8060008114610235576040519150601f19603f3d011682016040523d82523d6000602084013e61023a565b606091505b505090508061027e576040517f08c379a00000000000000000000000000000000000000000000000000000000081526004016102759061036d565b60405180910390fd5b5050565b60008135905061029181610455565b92915050565b6000602082840312156102a957600080fd5b60006102b784828501610282565b91505092915050565b60006102cd601b836103b3565b91506102d882610400565b602082019050919050565b60006102f06014836103b3565b91506102fb82610429565b602082019050919050565b60006103136000836103a8565b915061031e82610452565b600082019050919050565b610332816103f6565b82525050565b600061034382610306565b9150819050919050565b60006020820190508181036000830152610366816102c0565b9050919050565b60006020820190508181036000830152610386816102e3565b9050919050565b60006020820190506103a26000830184610329565b92915050565b600081905092915050565b600082825260208201905092915050565b60006103cf826103d6565b9050919050565b600073ffffffffffffffffffffffffffffffffffffffff82169050919050565b6000819050919050565b7f496e73756666696369656e742045746865722070726f76696465640000000000600082015250565b7f4661696c656420746f2073656e64206d6f6e6579000000000000000000000000600082015250565b50565b61045e816103c4565b811461046957600080fd5b5056fea2646970667358221220b43072183ff482efaf35f7d3e9ce8d532c670601974e8ee7a9508191410eb9f964736f6c63430008040033",
  "linkReferences": {},
  "deployedLinkReferences": {}
}